S01700004763634170706C69636174696F6E392E7372656353
S11300000C9434000C943E000C943E000C943E007E
S11300100C943E000C943E000C943E000C943E0064
S11300200C943E000C943E000C943E000C943E0054
S11300300C943E000C943E000C943E000C943E0044
S11300400C943E000C943E000C943E000C943E0034
S11300500C943E000C943E000C943E000C943E0024
S11300600C943E000C943E0011241FBECFEFD8E048
S1130070DEBFCDBF0E9478000C947E000C9400007B
S1130080299A8AE284B981E58CBD08951EBC0DB419
S113009007FEFDCF1EBC0DB407FEFDCF1EBC0DB484
S11300A007FEFDCF1EBC0DB407FEFDCF8FEF8EBD46
S11300B00DB407FEFDCF1EBC0DB407FEFDCF8FEFC0
S11300C08EBD0DB407FEFDCF8FEF8EBD0DB407FEC0
S11300D0FDCF089592E085B1892785B92FEF35EAE0
S11300E08EE0215030408040E1F700C00000F3CFA3
S11300F00E9440000E9446000E946A00F894FFCFCC
S9030000FC
