S01300004150413130325F746573742E737265638D
S11300000C9434000C9446000C9446000C94460066
S11300100C9446000C9446000C9446000C94460044
S11300200C9446000C9446000C9446000C94460034
S11300300C9446000C9446000C9446000C94460024
S11300400C9446000C9446000C9446000C94460014
S11300500C9446000C9446000C9446000C94460004
S11300600C9446000C94460011241FBECFEFD8E038
S1130070DEBFCDBF21E0A0E0B1E001C01D92A330FE
S1130080B207E1F70E9489000C94C9000C940000A7
S1130090299A8AE284B981E58CBD08951EBC0DB409
S11300A007FEFDCF1EBC0DB407FEFDCF1EBC0DB474
S11300B007FEFDCF1EBC0DB407FEFDCF23E030E0EC
S11300C091EE9EBD0DB407FEFDCF8EBD0DB407FEAF
S11300D0FDCF6EBD0DB407FEFDCF4EBD0DB407FEC2
S11300E0FDCF2150310969F78FEF8EBD0DB407FEA6
S11300F0FDCF8FEF8EBD0DB407FEFDCF8FEF8EBD0C
S11301000DB407FEFDCF8FEF8EBD0DB407FEFDCFFE
S113011008950E944800CFEF10920001109201014F
S1130120C093020140E060E08FEF0E944E002FEF89
S113013081EE94E0215080409040E1F700C000003F
S113014010920001C09301011092020140E06FEF90
S113015080E00E944E002FEF81EE94E02150804019
S11301609040E1F700C00000C0930001109201012B
S1130170109202014FEF60E080E00E944E002FEFEA
S113018081EE94E0215080409040E1F700C00000EF
S1090190C3CFF894FFCF79
S9030000FC
